{
  "contractName": "FeverContract",
  "abi": [
    {
      "inputs": [],
      "payable": false,
      "stateMutability": "nonpayable",
      "type": "constructor"
    },
    {
      "constant": true,
      "inputs": [],
      "name": "getTemperature",
      "outputs": [
        {
          "internalType": "uint8",
          "name": "",
          "type": "uint8"
        }
      ],
      "payable": false,
      "stateMutability": "view",
      "type": "function"
    },
    {
      "constant": true,
      "inputs": [],
      "name": "hasFever",
      "outputs": [
        {
          "internalType": "bool",
          "name": "",
          "type": "bool"
        }
      ],
      "payable": false,
      "stateMutability": "view",
      "type": "function"
    },
    {
      "constant": false,
      "inputs": [],
      "name": "increaseTemp",
      "outputs": [
        {
          "internalType": "uint8",
          "name": "",
          "type": "uint8"
        }
      ],
      "payable": false,
      "stateMutability": "nonpayable",
      "type": "function"
    },
    {
      "constant": false,
      "inputs": [],
      "name": "decreaseTemp",
      "outputs": [
        {
          "internalType": "uint8",
          "name": "",
          "type": "uint8"
        }
      ],
      "payable": false,
      "stateMutability": "nonpayable",
      "type": "function"
    }
  ],
  "bytecode": "0x608060405234801561001057600080fd5b5060626000806101000a81548160ff021916908360ff1602179055506102dc8061003b6000396000f3fe608060405234801561001057600080fd5b506004361061004c5760003560e01c8063154c34e914610051578063267302b314610075578063510be825146100995780636421d04b146100bb575b600080fd5b6100596100df565b604051808260ff1660ff16815260200191505060405180910390f35b61007d6101aa565b604051808260ff1660ff16815260200191505060405180910390f35b6100a1610275565b604051808215151515815260200191505060405180910390f35b6100c3610291565b604051808260ff1660ff16815260200191505060405180910390f35b6000606e6000809054906101000a900460ff1660ff161115610169576040517f08c379a00000000000000000000000000000000000000000000000000000000081526004018080602001828103825260198152602001807f796f75206172652064656164e28094746f6f20686f742121210000000000000081525060200191505060405180910390fd5b60016000808282829054906101000a900460ff160192506101000a81548160ff021916908360ff1602179055506000809054906101000a900460ff16905090565b6000605f6000809054906101000a900460ff1660ff161015610234576040517f08c379a000000000000000000000000000000000000000000000000000000000815260040180806020018281038252601a8152602001807f796f75206172652064656164e28094746f6f20636f6c6421212100000000000081525060200191505060405180910390fd5b60016000808282829054906101000a900460ff160392506101000a81548160ff021916908360ff1602179055506000809054906101000a900460ff16905090565b600060646000809054906101000a900460ff1660ff1611905090565b60008060009054906101000a900460ff1690509056fea265627a7a72315820e6c80c423c1b1d374ff3ec660ef703ed470a9d7ff92b1739daa0efd4822908fe64736f6c63430005100032",
  "source": "pragma solidity ^0.5.16;\n\ncontract FeverContract {\n\n  uint8 temperature;\n\n  constructor() public {\n    temperature = 98;\n  }\n\n  function getTemperature () public view returns(uint8) {\n    return temperature;\n  }\n\n  function hasFever () public view returns(bool) {\n    return temperature > 100;\n  }\n\n  function increaseTemp () public returns(uint8) {\n    if (temperature > 110) revert(\"you are dead—too hot!!!\");\n    temperature += 1;\n    return temperature;\n  }\n\n  function decreaseTemp () public returns(uint8) {\n    if (temperature < 95) revert(\"you are dead—too cold!!!\");\n    temperature -= 1;\n    return temperature;\n  }\n\n}\n",
  "sourcePath": "/workspace/dapp-scratch-fever/contracts/FeverContract.sol",
  "compiler": {
    "name": "solc",
    "version": "0.5.16+commit.9c3226ce.Emscripten.clang"
  },
  "schemaVersion": "3.3.2",
  "updatedAt": "2020-12-16T13:29:32.209Z",
  "devdoc": {
    "methods": {}
  },
  "userdoc": {
    "methods": {}
  }
}