{
  "contractName": "FeverContract",
  "abi": [
    {
      "constant": false,
      "inputs": [],
      "name": "increaseTemp",
      "outputs": [
        {
          "name": "",
          "type": "uint8"
        }
      ],
      "payable": false,
      "stateMutability": "nonpayable",
      "type": "function"
    },
    {
      "constant": false,
      "inputs": [],
      "name": "decreaseTemp",
      "outputs": [
        {
          "name": "",
          "type": "uint8"
        }
      ],
      "payable": false,
      "stateMutability": "nonpayable",
      "type": "function"
    },
    {
      "constant": true,
      "inputs": [],
      "name": "hasFever",
      "outputs": [
        {
          "name": "",
          "type": "bool"
        }
      ],
      "payable": false,
      "stateMutability": "view",
      "type": "function"
    },
    {
      "constant": true,
      "inputs": [],
      "name": "getTemperature",
      "outputs": [
        {
          "name": "",
          "type": "uint8"
        }
      ],
      "payable": false,
      "stateMutability": "view",
      "type": "function"
    },
    {
      "inputs": [],
      "payable": false,
      "stateMutability": "nonpayable",
      "type": "constructor"
    }
  ],
  "bytecode": "0x6060604052341561000f57600080fd5b6000805460ff191660621790556101868061002b6000396000f3006060604052600436106100615763ffffffff7c0100000000000000000000000000000000000000000000000000000000600035041663154c34e98114610066578063267302b31461008f578063510be825146100a25780636421d04b146100c9575b600080fd5b341561007157600080fd5b6100796100dc565b60405160ff909116815260200160405180910390f35b341561009a57600080fd5b61007961010f565b34156100ad57600080fd5b6100b5610143565b604051901515815260200160405180910390f35b34156100d457600080fd5b610079610151565b60008054606e60ff90911611156100f257600080fd5b506000805460ff198116600160ff92831601821617918290551690565b60008054605f60ff909116101561012557600080fd5b506000805460ff19811660ff91821660001901821617918290551690565b600054606460ff9091161190565b60005460ff16905600a165627a7a7230582096e08f3cf3b6613319516adada8c8db73d09f90c7fa81a6d7531390c4357ec480029",
  "source": "pragma solidity ^0.4.17;\n\ncontract FeverContract {\n\n  uint8 temperature;\n\n  function FeverContract() {\n    temperature = 98;\n  }\n  function getTemperature () public constant returns(uint8) {\n    return temperature;\n  }\n  function hasFever () public constant returns(bool) {\n    return temperature > 100;\n  }\n  function increaseTemp () public returns(uint8) {\n    if (temperature > 110) revert();\n    temperature += 1;\n    return temperature;\n  }\n  function decreaseTemp () public returns(uint8) {\n    if (temperature < 95) revert();\n    temperature -= 1;\n    return temperature;\n  }\n}\n",
  "sourcePath": "/Users/billy/Documents/htdocs/dapp-scratch-fever/contracts/FeverContract.sol",
  "compiler": {
    "name": "solc",
    "version": "0.4.18+commit.9cf6e910.Emscripten.clang"
  },
  "schemaVersion": "1.0.1",
  "updatedAt": "2017-12-11T10:27:06.878Z"
}